{
  "contractName": "BurnToClaim",
  "abi": [
    {
      "anonymous": false,
      "inputs": [
        {
          "indexed": true,
          "internalType": "bytes32",
          "name": "transactionId",
          "type": "bytes32"
        }
      ],
      "name": "entryTransactionEvent",
      "type": "event"
    },
    {
      "anonymous": false,
      "inputs": [
        {
          "indexed": true,
          "internalType": "bytes32",
          "name": "transactionId",
          "type": "bytes32"
        },
        {
          "indexed": true,
          "internalType": "address",
          "name": "sender",
          "type": "address"
        },
        {
          "indexed": true,
          "internalType": "address",
          "name": "receiver",
          "type": "address"
        },
        {
          "indexed": false,
          "internalType": "address",
          "name": "tokenContract",
          "type": "address"
        },
        {
          "indexed": false,
          "internalType": "uint256",
          "name": "amount",
          "type": "uint256"
        },
        {
          "indexed": false,
          "internalType": "bytes32",
          "name": "hashlock",
          "type": "bytes32"
        },
        {
          "indexed": false,
          "internalType": "uint256",
          "name": "timelock",
          "type": "uint256"
        }
      ],
      "name": "exitTransactionEvent",
      "type": "event"
    },
    {
      "anonymous": false,
      "inputs": [
        {
          "indexed": true,
          "internalType": "bytes32",
          "name": "transactionId",
          "type": "bytes32"
        }
      ],
      "name": "reclaimTransactionEvent",
      "type": "event"
    },
    {
      "anonymous": false,
      "inputs": [
        {
          "indexed": false,
          "internalType": "string",
          "name": "message",
          "type": "string"
        }
      ],
      "name": "requireMockEvent",
      "type": "event"
    },
    {
      "anonymous": false,
      "inputs": [
        {
          "indexed": false,
          "internalType": "string",
          "name": "message",
          "type": "string"
        }
      ],
      "name": "revertMockEvent",
      "type": "event"
    },
    {
      "inputs": [
        {
          "internalType": "bool",
          "name": "result",
          "type": "bool"
        },
        {
          "internalType": "string",
          "name": "message",
          "type": "string"
        }
      ],
      "name": "requireMock",
      "outputs": [],
      "stateMutability": "nonpayable",
      "type": "function"
    },
    {
      "inputs": [
        {
          "internalType": "address",
          "name": "contractAddress",
          "type": "address"
        }
      ],
      "name": "registerContract",
      "outputs": [],
      "stateMutability": "nonpayable",
      "type": "function"
    },
    {
      "inputs": [
        {
          "internalType": "address",
          "name": "_burnAddress",
          "type": "address"
        },
        {
          "internalType": "bytes32",
          "name": "_hashlock",
          "type": "bytes32"
        },
        {
          "internalType": "uint256",
          "name": "_timelock",
          "type": "uint256"
        },
        {
          "internalType": "address",
          "name": "_tokenContract",
          "type": "address"
        },
        {
          "internalType": "uint256",
          "name": "_amount",
          "type": "uint256"
        }
      ],
      "name": "exitTransaction",
      "outputs": [
        {
          "internalType": "bytes32",
          "name": "transactionId",
          "type": "bytes32"
        }
      ],
      "stateMutability": "nonpayable",
      "type": "function"
    },
    {
      "inputs": [
        {
          "internalType": "address",
          "name": "_crosschainContractAddress",
          "type": "address"
        },
        {
          "internalType": "bytes32",
          "name": "_transactionId",
          "type": "bytes32"
        },
        {
          "internalType": "address",
          "name": "_burnAddress",
          "type": "address"
        },
        {
          "internalType": "bytes32",
          "name": "_hashlock",
          "type": "bytes32"
        },
        {
          "internalType": "uint256",
          "name": "_timelock",
          "type": "uint256"
        },
        {
          "internalType": "address",
          "name": "_tokenContract",
          "type": "address"
        },
        {
          "internalType": "uint256",
          "name": "_amount",
          "type": "uint256"
        }
      ],
      "name": "add",
      "outputs": [],
      "stateMutability": "nonpayable",
      "type": "function"
    },
    {
      "inputs": [
        {
          "internalType": "uint256",
          "name": "_amount",
          "type": "uint256"
        },
        {
          "internalType": "address",
          "name": "_receiver",
          "type": "address"
        },
        {
          "internalType": "bytes32",
          "name": "_transactionId",
          "type": "bytes32"
        },
        {
          "internalType": "bytes32",
          "name": "_preimage",
          "type": "bytes32"
        }
      ],
      "name": "entryTransaction",
      "outputs": [
        {
          "internalType": "bool",
          "name": "",
          "type": "bool"
        }
      ],
      "stateMutability": "nonpayable",
      "type": "function"
    },
    {
      "inputs": [
        {
          "internalType": "address",
          "name": "_crosschainContractAddress",
          "type": "address"
        },
        {
          "internalType": "bytes32",
          "name": "_transactionId",
          "type": "bytes32"
        },
        {
          "internalType": "bytes32",
          "name": "_preimage",
          "type": "bytes32"
        }
      ],
      "name": "update",
      "outputs": [],
      "stateMutability": "nonpayable",
      "type": "function"
    },
    {
      "inputs": [
        {
          "internalType": "bytes32",
          "name": "_transactionId",
          "type": "bytes32"
        }
      ],
      "name": "reclaimTransaction",
      "outputs": [
        {
          "internalType": "bool",
          "name": "",
          "type": "bool"
        }
      ],
      "stateMutability": "nonpayable",
      "type": "function"
    },
    {
      "inputs": [
        {
          "internalType": "bytes32",
          "name": "_transactionId",
          "type": "bytes32"
        }
      ],
      "name": "reclaimTransaction1",
      "outputs": [
        {
          "internalType": "bool",
          "name": "",
          "type": "bool"
        }
      ],
      "stateMutability": "nonpayable",
      "type": "function"
    },
    {
      "inputs": [
        {
          "internalType": "address",
          "name": "_tokenContract",
          "type": "address"
        },
        {
          "internalType": "address",
          "name": "_recipient",
          "type": "address"
        },
        {
          "internalType": "uint256",
          "name": "_amount",
          "type": "uint256"
        }
      ],
      "name": "btcTransfer",
      "outputs": [],
      "stateMutability": "nonpayable",
      "type": "function"
    },
    {
      "inputs": [
        {
          "internalType": "address",
          "name": "_tokenContract",
          "type": "address"
        },
        {
          "internalType": "address",
          "name": "_sender",
          "type": "address"
        },
        {
          "internalType": "address",
          "name": "_recipient",
          "type": "address"
        },
        {
          "internalType": "uint256",
          "name": "_amount",
          "type": "uint256"
        }
      ],
      "name": "btcTransferFrom",
      "outputs": [],
      "stateMutability": "nonpayable",
      "type": "function"
    },
    {
      "inputs": [
        {
          "internalType": "bytes32",
          "name": "_transactionId",
          "type": "bytes32"
        }
      ],
      "name": "getContract",
      "outputs": [
        {
          "internalType": "address",
          "name": "sender",
          "type": "address"
        },
        {
          "internalType": "address",
          "name": "receiver",
          "type": "address"
        },
        {
          "internalType": "address",
          "name": "tokenContract",
          "type": "address"
        },
        {
          "internalType": "uint256",
          "name": "amount",
          "type": "uint256"
        },
        {
          "internalType": "bytes32",
          "name": "hashlock",
          "type": "bytes32"
        },
        {
          "internalType": "uint256",
          "name": "timelock",
          "type": "uint256"
        },
        {
          "internalType": "bool",
          "name": "withdrawn",
          "type": "bool"
        },
        {
          "internalType": "bool",
          "name": "refunded",
          "type": "bool"
        },
        {
          "internalType": "bytes32",
          "name": "preimage",
          "type": "bytes32"
        }
      ],
      "stateMutability": "view",
      "type": "function"
    }
  ],
  "bytecode": "0x608060405234801561001057600080fd5b50612311806100206000396000f3fe608060405234801561001057600080fd5b50600436106100a95760003560e01c806364ff30041161007157806364ff30041461028e5780636d0c27a8146102e6578063cbbd8a1d14610354578063d9d1ca4714610400578063e16c7d981461048e578063f46611f914610594576100a9565b8063159a962c146100ae57806322a5dde41461014457806340d1ce7314610188578063449b0395146101ce5780634cc28a1914610248575b600080fd5b61012e600480360360a08110156100c457600080fd5b81019080803573ffffffffffffffffffffffffffffffffffffffff1690602001909291908035906020019092919080359060200190929190803573ffffffffffffffffffffffffffffffffffffffff1690602001909291908035906020019092919050505061065b565b6040518082815260200191505060405180910390f35b6101866004803603602081101561015a57600080fd5b81019080803573ffffffffffffffffffffffffffffffffffffffff169060200190929190505050610da4565b005b6101b46004803603602081101561019e57600080fd5b8101908080359060200190929190505050610ed0565b604051808215151515815260200191505060405180910390f35b61022e600480360360808110156101e457600080fd5b8101908080359060200190929190803573ffffffffffffffffffffffffffffffffffffffff1690602001909291908035906020019092919080359060200190929190505050611258565b604051808215151515815260200191505060405180910390f35b6102746004803603602081101561025e57600080fd5b8101908080359060200190929190505050611605565b604051808215151515815260200191505060405180910390f35b6102e4600480360360608110156102a457600080fd5b81019080803573ffffffffffffffffffffffffffffffffffffffff16906020019092919080359060200190929190803590602001909291905050506119c7565b005b610352600480360360608110156102fc57600080fd5b81019080803573ffffffffffffffffffffffffffffffffffffffff169060200190929190803573ffffffffffffffffffffffffffffffffffffffff16906020019092919080359060200190929190505050611a7a565b005b6103fe600480360360e081101561036a57600080fd5b81019080803573ffffffffffffffffffffffffffffffffffffffff16906020019092919080359060200190929190803573ffffffffffffffffffffffffffffffffffffffff1690602001909291908035906020019092919080359060200190929190803573ffffffffffffffffffffffffffffffffffffffff16906020019092919080359060200190929190505050611b96565b005b61048c6004803603608081101561041657600080fd5b81019080803573ffffffffffffffffffffffffffffffffffffffff169060200190929190803573ffffffffffffffffffffffffffffffffffffffff169060200190929190803573ffffffffffffffffffffffffffffffffffffffff16906020019092919080359060200190929190505050611dee565b005b6104ba600480360360208110156104a457600080fd5b8101908080359060200190929190505050611f3f565b604051808a73ffffffffffffffffffffffffffffffffffffffff1673ffffffffffffffffffffffffffffffffffffffff1681526020018973ffffffffffffffffffffffffffffffffffffffff1673ffffffffffffffffffffffffffffffffffffffff1681526020018873ffffffffffffffffffffffffffffffffffffffff1673ffffffffffffffffffffffffffffffffffffffff1681526020018781526020018681526020018581526020018415151515815260200183151515158152602001828152602001995050505050505050505060405180910390f35b610659600480360360408110156105aa57600080fd5b81019080803515159060200190929190803590602001906401000000008111156105d357600080fd5b8201836020820111156105e557600080fd5b8035906020019184600183028401116401000000008311171561060757600080fd5b91908080601f016020809104026020016040519081016040528093929190818152602001838380828437600081840152601f19601f82011690508083019250505050505050919291929050505061207f565b005b6000804290506106a3600084116040518060400160405280601881526020017f746f6b656e20616d6f756e74206d757374206265203e2030000000000000000081525061207f565b6107b3838573ffffffffffffffffffffffffffffffffffffffff1663dd62ed3e33306040518363ffffffff1660e01b8152600401808373ffffffffffffffffffffffffffffffffffffffff1673ffffffffffffffffffffffffffffffffffffffff1681526020018273ffffffffffffffffffffffffffffffffffffffff1673ffffffffffffffffffffffffffffffffffffffff1681526020019250505060206040518083038186803b15801561075857600080fd5b505afa15801561076c573d6000803e3d6000fd5b505050506040513d602081101561078257600080fd5b810190808051906020019092919050505010156040518060600160405280602181526020016122386021913961207f565b6107d781861160405180606001604052806023815260200161219c6023913961207f565b6002338886868a8a604051602001808773ffffffffffffffffffffffffffffffffffffffff1673ffffffffffffffffffffffffffffffffffffffff1660601b81526014018673ffffffffffffffffffffffffffffffffffffffff1673ffffffffffffffffffffffffffffffffffffffff1660601b81526014018573ffffffffffffffffffffffffffffffffffffffff1673ffffffffffffffffffffffffffffffffffffffff1660601b815260140184815260200183815260200182815260200196505050505050506040516020818303038152906040526040518082805190602001908083835b602083106108e157805182526020820191506020810190506020830392506108be565b6001836020036101000a038019825116818451168082178552505050505050905001915050602060405180830381855afa158015610923573d6000803e3d6000fd5b5050506040513d602081101561093857600080fd5b810190808051906020019092919050505091506109548261212d565b156109c7576040517f08c379a00000000000000000000000000000000000000000000000000000000081526004018080602001828103825260178152602001807f436f6e747261637420616c72656164792065786973747300000000000000000081525060200191505060405180910390fd5b8373ffffffffffffffffffffffffffffffffffffffff166323b872dd3389866040518463ffffffff1660e01b8152600401808473ffffffffffffffffffffffffffffffffffffffff1673ffffffffffffffffffffffffffffffffffffffff1681526020018373ffffffffffffffffffffffffffffffffffffffff1673ffffffffffffffffffffffffffffffffffffffff1681526020018281526020019350505050602060405180830381600087803b158015610a8257600080fd5b505af1158015610a96573d6000803e3d6000fd5b505050506040513d6020811015610aac57600080fd5b8101908080519060200190929190505050610b12576040517f08c379a00000000000000000000000000000000000000000000000000000000081526004018080602001828103825260228152602001806122896022913960400191505060405180910390fd5b6040518061012001604052803373ffffffffffffffffffffffffffffffffffffffff1681526020018873ffffffffffffffffffffffffffffffffffffffff1681526020018573ffffffffffffffffffffffffffffffffffffffff1681526020018481526020018781526020018681526020016000151581526020016000151581526020016000801b81525060008084815260200190815260200160002060008201518160000160006101000a81548173ffffffffffffffffffffffffffffffffffffffff021916908373ffffffffffffffffffffffffffffffffffffffff16021790555060208201518160010160006101000a81548173ffffffffffffffffffffffffffffffffffffffff021916908373ffffffffffffffffffffffffffffffffffffffff16021790555060408201518160020160006101000a81548173ffffffffffffffffffffffffffffffffffffffff021916908373ffffffffffffffffffffffffffffffffffffffff160217905550606082015181600301556080820151816004015560a0820151816005015560c08201518160060160006101000a81548160ff02191690831515021790555060e08201518160060160016101000a81548160ff02191690831515021790555061010082015181600701559050508673ffffffffffffffffffffffffffffffffffffffff163373ffffffffffffffffffffffffffffffffffffffff16837fa2a72d0528ccc829345e59386d5d35f088e634e3f387a029c08067fa727c654687878b42604051808573ffffffffffffffffffffffffffffffffffffffff1673ffffffffffffffffffffffffffffffffffffffff16815260200184815260200183815260200182815260200194505050505060405180910390a45095945050505050565b610df6600073ffffffffffffffffffffffffffffffffffffffff168273ffffffffffffffffffffffffffffffffffffffff1614156040518060600160405280602981526020016121bf6029913961207f565b60405180604001604052808273ffffffffffffffffffffffffffffffffffffffff16815260200160011515815250600160008373ffffffffffffffffffffffffffffffffffffffff1673ffffffffffffffffffffffffffffffffffffffff16815260200190815260200160002060008201518160000160006101000a81548173ffffffffffffffffffffffffffffffffffffffff021916908373ffffffffffffffffffffffffffffffffffffffff16021790555060208201518160000160146101000a81548160ff02191690831515021790555090505050565b6000610f19610ede8361212d565b6040518060400160405280601c81526020017f7472616e73616374696f6e496420646f6573206e6f742065786973740000000081525061207f565b610fbb3373ffffffffffffffffffffffffffffffffffffffff1660008085815260200190815260200160002060000160009054906101000a900473ffffffffffffffffffffffffffffffffffffffff1673ffffffffffffffffffffffffffffffffffffffff16146040518060400160405280601681526020017f726566756e6461626c653a206e6f742073656e6465720000000000000000000081525061207f565b6110236000151560008085815260200190815260200160002060060160019054906101000a900460ff161515146040518060400160405280601c81526020017f726566756e6461626c653a20616c726561647920726566756e6465640000000081525061207f565b61108b6000151560008085815260200190815260200160002060060160009054906101000a900460ff161515146040518060400160405280601d81526020017f726566756e6461626c653a20616c72656164792077697468647261776e00000081525061207f565b6000806000848152602001908152602001600020905060018160060160016101000a81548160ff0219169083151502179055508060020160009054906101000a900473ffffffffffffffffffffffffffffffffffffffff1673ffffffffffffffffffffffffffffffffffffffff1663a9059cbb8260000160009054906101000a900473ffffffffffffffffffffffffffffffffffffffff1683600301546040518363ffffffff1660e01b8152600401808373ffffffffffffffffffffffffffffffffffffffff1673ffffffffffffffffffffffffffffffffffffffff16815260200182815260200192505050602060405180830381600087803b15801561119157600080fd5b505af11580156111a5573d6000803e3d6000fd5b505050506040513d60208110156111bb57600080fd5b8101908080519060200190929190505050611221576040517f08c379a00000000000000000000000000000000000000000000000000000000081526004018080602001828103825260228152602001806122896022913960400191505060405180910390fd5b827f7b932d7c3c50d56f3e342fca080984c95d87d5611ec3487235c1854056cc8eb460405160405180910390a26001915050919050565b60006112a16112668461212d565b6040518060400160405280601c81526020017f7472616e73616374696f6e496420646f6573206e6f742065786973740000000081525061207f565b6113b3600283604051602001808281526020019150506040516020818303038152906040526040518082805190602001908083835b602083106112f957805182526020820191506020810190506020830392506112d6565b6001836020036101000a038019825116818451168082178552505050505050905001915050602060405180830381855afa15801561133b573d6000803e3d6000fd5b5050506040513d602081101561135057600080fd5b810190808051906020019092919050505060008086815260200190815260200160002060040154146040518060400160405280601c81526020017f686173686c6f636b206861736820646f6573206e6f74206d617463680000000081525061207f565b61141b6000151560008086815260200190815260200160002060060160009054906101000a900460ff161515146040518060400160405280601f81526020017f776974686472617761626c653a20616c72656164792077697468647261776e0081525061207f565b6114544260008086815260200190815260200160002060050154116040518060600160405280603181526020016122ab6031913961207f565b6000806000858152602001908152602001600020905082816007018190555060018160060160006101000a81548160ff0219169083151502179055508060020160009054906101000a900473ffffffffffffffffffffffffffffffffffffffff1673ffffffffffffffffffffffffffffffffffffffff1663a9059cbb86886040518363ffffffff1660e01b8152600401808373ffffffffffffffffffffffffffffffffffffffff1673ffffffffffffffffffffffffffffffffffffffff16815260200182815260200192505050602060405180830381600087803b15801561153b57600080fd5b505af115801561154f573d6000803e3d6000fd5b505050506040513d602081101561156557600080fd5b81019080805190602001909291905050506115cb576040517f08c379a00000000000000000000000000000000000000000000000000000000081526004018080602001828103825260228152602001806122896022913960400191505060405180910390fd5b837fccc078c3cc52c3238bfb3152392fb494a9394ecab9842bb9c46395dc84ad29c660405160405180910390a26001915050949350505050565b600061164e6116138361212d565b6040518060400160405280601c81526020017f7472616e73616374696f6e496420646f6573206e6f742065786973740000000081525061207f565b6116f03373ffffffffffffffffffffffffffffffffffffffff1660008085815260200190815260200160002060000160009054906101000a900473ffffffffffffffffffffffffffffffffffffffff1673ffffffffffffffffffffffffffffffffffffffff16146040518060400160405280601681526020017f726566756e6461626c653a206e6f742073656e6465720000000000000000000081525061207f565b6117586000151560008085815260200190815260200160002060060160019054906101000a900460ff161515146040518060400160405280601c81526020017f726566756e6461626c653a20616c726561647920726566756e6465640000000081525061207f565b6117c06000151560008085815260200190815260200160002060060160009054906101000a900460ff161515146040518060400160405280601d81526020017f726566756e6461626c653a20616c72656164792077697468647261776e00000081525061207f565b6117fa426000808581526020019081526020016000206005015411156040518060600160405280602381526020016122156023913961207f565b6000806000848152602001908152602001600020905060018160060160016101000a81548160ff0219169083151502179055508060020160009054906101000a900473ffffffffffffffffffffffffffffffffffffffff1673ffffffffffffffffffffffffffffffffffffffff1663a9059cbb8260000160009054906101000a900473ffffffffffffffffffffffffffffffffffffffff1683600301546040518363ffffffff1660e01b8152600401808373ffffffffffffffffffffffffffffffffffffffff1673ffffffffffffffffffffffffffffffffffffffff16815260200182815260200192505050602060405180830381600087803b15801561190057600080fd5b505af1158015611914573d6000803e3d6000fd5b505050506040513d602081101561192a57600080fd5b8101908080519060200190929190505050611990576040517f08c379a00000000000000000000000000000000000000000000000000000000081526004018080602001828103825260228152602001806122896022913960400191505060405180910390fd5b827f7b932d7c3c50d56f3e342fca080984c95d87d5611ec3487235c1854056cc8eb460405160405180910390a26001915050919050565b611a38600160008573ffffffffffffffffffffffffffffffffffffffff1673ffffffffffffffffffffffffffffffffffffffff16815260200190815260200160002060000160149054906101000a900460ff166040518060600160405280603081526020016122596030913961207f565b6000806000848152602001908152602001600020905081816007018190555060018160060160006101000a81548160ff02191690831515021790555050505050565b8273ffffffffffffffffffffffffffffffffffffffff1663a9059cbb83836040518363ffffffff1660e01b8152600401808373ffffffffffffffffffffffffffffffffffffffff1673ffffffffffffffffffffffffffffffffffffffff16815260200182815260200192505050602060405180830381600087803b158015611b0157600080fd5b505af1158015611b15573d6000803e3d6000fd5b505050506040513d6020811015611b2b57600080fd5b8101908080519060200190929190505050611b91576040517f08c379a00000000000000000000000000000000000000000000000000000000081526004018080602001828103825260228152602001806122896022913960400191505060405180910390fd5b505050565b611c07600160008973ffffffffffffffffffffffffffffffffffffffff1673ffffffffffffffffffffffffffffffffffffffff16815260200190815260200160002060000160149054906101000a900460ff166040518060600160405280602d81526020016121e8602d913961207f565b6040518061012001604052803373ffffffffffffffffffffffffffffffffffffffff1681526020018673ffffffffffffffffffffffffffffffffffffffff1681526020018373ffffffffffffffffffffffffffffffffffffffff1681526020018281526020018581526020018481526020016000151581526020016000151581526020016000801b81525060008088815260200190815260200160002060008201518160000160006101000a81548173ffffffffffffffffffffffffffffffffffffffff021916908373ffffffffffffffffffffffffffffffffffffffff16021790555060208201518160010160006101000a81548173ffffffffffffffffffffffffffffffffffffffff021916908373ffffffffffffffffffffffffffffffffffffffff16021790555060408201518160020160006101000a81548173ffffffffffffffffffffffffffffffffffffffff021916908373ffffffffffffffffffffffffffffffffffffffff160217905550606082015181600301556080820151816004015560a0820151816005015560c08201518160060160006101000a81548160ff02191690831515021790555060e08201518160060160016101000a81548160ff021916908315150217905550610100820151816007015590505050505050505050565b8373ffffffffffffffffffffffffffffffffffffffff166323b872dd8484846040518463ffffffff1660e01b8152600401808473ffffffffffffffffffffffffffffffffffffffff1673ffffffffffffffffffffffffffffffffffffffff1681526020018373ffffffffffffffffffffffffffffffffffffffff1673ffffffffffffffffffffffffffffffffffffffff1681526020018281526020019350505050602060405180830381600087803b158015611ea957600080fd5b505af1158015611ebd573d6000803e3d6000fd5b505050506040513d6020811015611ed357600080fd5b8101908080519060200190929190505050611f39576040517f08c379a00000000000000000000000000000000000000000000000000000000081526004018080602001828103825260228152602001806122896022913960400191505060405180910390fd5b50505050565b6000806000806000806000806000801515611f598b61212d565b15151415611fa15760008060008060008060008060008898508797508696508595508460001b94508393508060001b9050985098509850985098509850985098509850612072565b60008060008c815260200190815260200160002090508060000160009054906101000a900473ffffffffffffffffffffffffffffffffffffffff168160010160009054906101000a900473ffffffffffffffffffffffffffffffffffffffff168260020160009054906101000a900473ffffffffffffffffffffffffffffffffffffffff168360030154846004015485600501548660060160009054906101000a900460ff168760060160019054906101000a900460ff168860070154995099509950995099509950995099509950505b9193959799909294969850565b600015158215151415612129577f560da9d4a39e8b8b206d502334ec642be7774eaaf28dce67f25da29a45da89ec816040518080602001828103825283818151815260200191508051906020019080838360005b838110156120ee5780820151818401526020810190506120d3565b50505050905090810190601f16801561211b5780820380516001836020036101000a031916815260200191505b509250505060405180910390a15b5050565b60008073ffffffffffffffffffffffffffffffffffffffff1660008084815260200190815260200160002060000160009054906101000a900473ffffffffffffffffffffffffffffffffffffffff1673ffffffffffffffffffffffffffffffffffffffff161415905091905056fe74696d656c6f636b2074696d65206d75737420626520696e2074686520667574757265636f6e74726163742061646472657373206d757374206e6f74206265207a65726f206164647265737341646420636f727373436861696e206461746120636f6e74726163742061646472657373206e6f742065786974726566756e6461626c653a2074696d656c6f636b206e6f742079657420706173736564746f6b656e20616c6c6f77616e6365206d757374206265203e3d20616d6f756e7455706461746520636f727373436861696e206461746120636f6e74726163742061646472657373206e6f7420657869747472616e7366657246726f6d2073656e64657220746f2074686973206661696c6564776974686472617761626c653a2074696d656c6f636b2074696d65206d75737420626520696e2074686520667574757265a26469706673582212208e042db6a07826e209288f134d9aa8b27279591819f7df23da9ef11b234e8e6564736f6c63430006020033",
  "source": "pragma solidity ^0.6.0;\r\n\r\nimport \"@openzeppelin/contracts/token/ERC20/ERC20.sol\";\r\n\r\ncontract BurnToClaim {\r\n    event exitTransactionEvent(\r\n        bytes32 indexed transactionId,\r\n        address indexed sender,\r\n        address indexed receiver,\r\n        address tokenContract,\r\n        uint256 amount,\r\n        bytes32 hashlock,\r\n        uint256 timelock\r\n    );\r\n    event entryTransactionEvent(bytes32 indexed transactionId);\r\n    event reclaimTransactionEvent(bytes32 indexed transactionId);\r\n\r\n    struct BurnTokenData {\r\n        address sender;\r\n        address receiver;\r\n        address tokenContract;\r\n        uint256 amount;\r\n        bytes32 hashlock;\r\n        uint256 timelock;\r\n        bool withdrawn;\r\n        bool refunded;\r\n        bytes32 preimage;\r\n    }\r\n    mapping(bytes32 => BurnTokenData) burnTokenData;\r\n    struct CrosschainAddress {\r\n        address contractAddress;\r\n        bool isExit;\r\n    }\r\n    mapping(address => CrosschainAddress) crosschainAddress;\r\n\r\n    event requireMockEvent(string  message);\r\n    event revertMockEvent(string  message);\r\n\r\n    function requireMock(bool result, string memory message) public {\r\n        if(result == false){\r\n            emit requireMockEvent(message);\r\n        }\r\n    }\r\n\r\n    function registerContract(address contractAddress) external {\r\n        requireMock(\r\n            contractAddress != address(0),\r\n            \"contract address must not be zero address\"\r\n        );\r\n        crosschainAddress[contractAddress] = CrosschainAddress(\r\n            contractAddress,\r\n            true\r\n        );\r\n    }\r\n\r\n    function exitTransaction(\r\n        address _burnAddress,\r\n        bytes32 _hashlock,\r\n        uint256 _timelock,\r\n        address _tokenContract,\r\n        uint256 _amount\r\n    ) external returns (bytes32 transactionId) {\r\n        uint timeNow = now;\r\n        requireMock(_amount > 0, \"token amount must be > 0\");\r\n        requireMock(\r\n            ERC20(_tokenContract).allowance(msg.sender, address(this)) >=\r\n                _amount,\r\n            \"token allowance must be >= amount\"\r\n        );\r\n        \r\n        requireMock(_timelock > timeNow, \"timelock time must be in the future\");\r\n\r\n        transactionId = sha256(\r\n            abi.encodePacked(\r\n                msg.sender,\r\n                _burnAddress,\r\n                _tokenContract,\r\n                _amount,\r\n                _hashlock,\r\n                _timelock\r\n            )\r\n        );\r\n\r\n        if (haveContract(transactionId)) revert(\"Contract already exists\");\r\n        if (\r\n            !ERC20(_tokenContract).transferFrom(\r\n                msg.sender,\r\n                _burnAddress,\r\n                _amount\r\n            )\r\n        ) revert(\"transferFrom sender to this failed\");\r\n\r\n        burnTokenData[transactionId] = BurnTokenData(\r\n            msg.sender,\r\n            _burnAddress,\r\n            _tokenContract,\r\n            _amount,\r\n            _hashlock,\r\n            _timelock,\r\n            false,\r\n            false,\r\n            0x0\r\n        );\r\n\r\n        emit exitTransactionEvent(\r\n            transactionId,\r\n            msg.sender,\r\n            _burnAddress,\r\n            _tokenContract,\r\n            _amount,\r\n            _hashlock,\r\n            now\r\n        );\r\n    }\r\n\r\n    function add(\r\n        address _crosschainContractAddress,\r\n        bytes32 _transactionId,\r\n        address _burnAddress,\r\n        bytes32 _hashlock,\r\n        uint256 _timelock,\r\n        address _tokenContract, // base token contract\r\n        uint256 _amount\r\n    ) external {\r\n        requireMock(\r\n            crosschainAddress[_crosschainContractAddress].isExit,\r\n            \"Add corssChain data contract address not exit\"\r\n        );\r\n        burnTokenData[_transactionId] = BurnTokenData(\r\n            msg.sender,\r\n            _burnAddress,\r\n            _tokenContract,\r\n            _amount,\r\n            _hashlock,\r\n            _timelock,\r\n            false,\r\n            false,\r\n            0x0\r\n        );\r\n    }\r\n\r\n    function entryTransaction(\r\n        uint256 _amount,\r\n        address _receiver,\r\n        bytes32 _transactionId,\r\n        bytes32 _preimage\r\n    ) external returns (bool) {\r\n        requireMock(haveContract(_transactionId), \"transactionId does not exist\");\r\n        requireMock(\r\n            burnTokenData[_transactionId].hashlock ==\r\n                sha256(abi.encodePacked(_preimage)),\r\n            \"hashlock hash does not match\"\r\n        );\r\n        requireMock(\r\n            burnTokenData[_transactionId].withdrawn == false,\r\n            \"withdrawable: already withdrawn\"\r\n        );\r\n        requireMock(\r\n            burnTokenData[_transactionId].timelock > now,\r\n            \"withdrawable: timelock time must be in the future\"\r\n        );\r\n\r\n        BurnTokenData storage c = burnTokenData[_transactionId];\r\n        c.preimage = _preimage;\r\n        c.withdrawn = true;\r\n        if (!ERC20(c.tokenContract).transfer(_receiver, _amount)){\r\n            revert(\"transferFrom sender to this failed\");\r\n        }\r\n        else{\r\n\r\n        emit entryTransactionEvent(_transactionId);\r\n        }\r\n        return true;\r\n    }\r\n\r\n    function update(\r\n        address _crosschainContractAddress,\r\n        bytes32 _transactionId,\r\n        bytes32 _preimage\r\n    ) external {\r\n        requireMock(\r\n            crosschainAddress[_crosschainContractAddress].isExit,\r\n            \"Update corssChain data contract address not exit\"\r\n        );\r\n        BurnTokenData storage c = burnTokenData[_transactionId];\r\n        c.preimage = _preimage;\r\n        c.withdrawn = true;\r\n    }\r\n\r\n    function reclaimTransaction(bytes32 _transactionId)\r\n        external\r\n        returns (bool)\r\n    {\r\n        requireMock(haveContract(_transactionId), \"transactionId does not exist\");\r\n        requireMock(\r\n            burnTokenData[_transactionId].sender == msg.sender,\r\n            \"refundable: not sender\"\r\n        );\r\n        requireMock(\r\n            burnTokenData[_transactionId].refunded == false,\r\n            \"refundable: already refunded\"\r\n        );\r\n        requireMock(\r\n            burnTokenData[_transactionId].withdrawn == false,\r\n            \"refundable: already withdrawn\"\r\n        );\r\n        requireMock(\r\n            burnTokenData[_transactionId].timelock <= now,\r\n            \"refundable: timelock not yet passed\"\r\n        );\r\n\r\n        BurnTokenData storage c = burnTokenData[_transactionId];\r\n        c.refunded = true;\r\n        if (!ERC20(c.tokenContract).transfer(c.sender, c.amount))\r\n            revert(\"transferFrom sender to this failed\");\r\n        emit reclaimTransactionEvent(_transactionId);\r\n        return true;\r\n    }\r\n\r\n    function reclaimTransaction1(bytes32 _transactionId)\r\n        external\r\n        returns (bool)\r\n    {\r\n        requireMock(haveContract(_transactionId), \"transactionId does not exist\");\r\n        requireMock(\r\n            burnTokenData[_transactionId].sender == msg.sender,\r\n            \"refundable: not sender\"\r\n        );\r\n        requireMock(\r\n            burnTokenData[_transactionId].refunded == false,\r\n            \"refundable: already refunded\"\r\n        );\r\n        requireMock(\r\n            burnTokenData[_transactionId].withdrawn == false,\r\n            \"refundable: already withdrawn\"\r\n        );\r\n        //   requireMock(\r\n        //     burnTokenData[_transactionId].timelock <= now,\r\n        //      \"refundable: timelock not yet passed\"\r\n        //);\r\n\r\n        BurnTokenData storage c = burnTokenData[_transactionId];\r\n        c.refunded = true;\r\n        if (!ERC20(c.tokenContract).transfer(c.sender, c.amount))\r\n            revert(\"transferFrom sender to this failed\");\r\n        emit reclaimTransactionEvent(_transactionId);\r\n        return true;\r\n    }\r\n\r\n    function btcTransfer(\r\n        address _tokenContract,\r\n        address _recipient,\r\n        uint256 _amount\r\n    ) external {\r\n        if (!ERC20(_tokenContract).transfer(_recipient, _amount))\r\n            revert(\"transferFrom sender to this failed\");\r\n    }\r\n\r\n    function btcTransferFrom(\r\n        address _tokenContract,\r\n        address _sender,\r\n        address _recipient,\r\n        uint256 _amount\r\n    ) external {\r\n        if (!ERC20(_tokenContract).transferFrom(_sender, _recipient, _amount))\r\n            revert(\"transferFrom sender to this failed\");\r\n    }\r\n\r\n    function getContract(bytes32 _transactionId)\r\n        public\r\n        view\r\n        returns (\r\n            address sender,\r\n            address receiver,\r\n            address tokenContract,\r\n            uint256 amount,\r\n            bytes32 hashlock,\r\n            uint256 timelock,\r\n            bool withdrawn,\r\n            bool refunded,\r\n            bytes32 preimage\r\n        )\r\n    {\r\n        if (haveContract(_transactionId) == false)\r\n            return (\r\n                address(0),\r\n                address(0),\r\n                address(0),\r\n                0,\r\n                0,\r\n                0,\r\n                false,\r\n                false,\r\n                0\r\n            );\r\n        BurnTokenData storage c = burnTokenData[_transactionId];\r\n        return (\r\n            c.sender,\r\n            c.receiver,\r\n            c.tokenContract,\r\n            c.amount,\r\n            c.hashlock,\r\n            c.timelock,\r\n            c.withdrawn,\r\n            c.refunded,\r\n            c.preimage\r\n        );\r\n    }\r\n\r\n    function haveContract(bytes32 _transactionId)\r\n        internal\r\n        view\r\n        returns (bool exists)\r\n    {\r\n        exists = (burnTokenData[_transactionId].sender != address(0));\r\n    }\r\n}\r\n",
  "sourcePath": "C:\\Users\\Paul\\Documents\\GitHub\\severalpens\\burn-to-claim\\contracts\\BurnToClaim.sol",
  "compiler": {
    "name": "solc",
    "version": "0.6.2+commit.bacdbe57.Emscripten.clang"
  },
  "schemaVersion": "3.2.0",
  "updatedAt": "2020-11-09T06:22:16.104Z",
  "devdoc": {
    "methods": {}
  },
  "userdoc": {
    "methods": {}
  }
}